{
  "_format": "hh-sol-artifact-1",
  "contractName": "Raffle",
  "sourceName": "contracts/Raffle.sol",
  "abi": [
    {
      "inputs": [
        {
          "internalType": "uint256",
          "name": "entranceFee",
          "type": "uint256"
        },
        {
          "internalType": "uint256",
          "name": "interval",
          "type": "uint256"
        },
        {
          "internalType": "address",
          "name": "vrfCoordinatorV2",
          "type": "address"
        },
        {
          "internalType": "bytes32",
          "name": "gasLane",
          "type": "bytes32"
        },
        {
          "internalType": "uint64",
          "name": "subscriptionId",
          "type": "uint64"
        },
        {
          "internalType": "uint32",
          "name": "callbackGasLimit",
          "type": "uint32"
        }
      ],
      "stateMutability": "nonpayable",
      "type": "constructor"
    },
    {
      "inputs": [
        {
          "internalType": "address",
          "name": "have",
          "type": "address"
        },
        {
          "internalType": "address",
          "name": "want",
          "type": "address"
        }
      ],
      "name": "OnlyCoordinatorCanFulfill",
      "type": "error"
    },
    {
      "inputs": [],
      "name": "Raffle__RaffleNotOpen",
      "type": "error"
    },
    {
      "inputs": [],
      "name": "Raffle__SendMoreToEnterRaffle",
      "type": "error"
    },
    {
      "inputs": [],
      "name": "Raffle__TransferFailed",
      "type": "error"
    },
    {
      "inputs": [],
      "name": "Raffle__UpkeepNotNeeded",
      "type": "error"
    },
    {
      "anonymous": false,
      "inputs": [
        {
          "indexed": true,
          "internalType": "address",
          "name": "player",
          "type": "address"
        }
      ],
      "name": "RaffleEnter",
      "type": "event"
    },
    {
      "anonymous": false,
      "inputs": [
        {
          "indexed": true,
          "internalType": "uint256",
          "name": "requestId",
          "type": "uint256"
        }
      ],
      "name": "RequestedRaffleWinner",
      "type": "event"
    },
    {
      "anonymous": false,
      "inputs": [
        {
          "indexed": true,
          "internalType": "address",
          "name": "winner",
          "type": "address"
        }
      ],
      "name": "WinnerPicked",
      "type": "event"
    },
    {
      "inputs": [],
      "name": "NUM_WORDS",
      "outputs": [
        {
          "internalType": "uint32",
          "name": "",
          "type": "uint32"
        }
      ],
      "stateMutability": "view",
      "type": "function"
    },
    {
      "inputs": [],
      "name": "REQUEST_CONFIRMATIONS",
      "outputs": [
        {
          "internalType": "uint16",
          "name": "",
          "type": "uint16"
        }
      ],
      "stateMutability": "view",
      "type": "function"
    },
    {
      "inputs": [
        {
          "internalType": "bytes",
          "name": "",
          "type": "bytes"
        }
      ],
      "name": "checkUpkeep",
      "outputs": [
        {
          "internalType": "bool",
          "name": "upkeepNeeded",
          "type": "bool"
        },
        {
          "internalType": "bytes",
          "name": "",
          "type": "bytes"
        }
      ],
      "stateMutability": "view",
      "type": "function"
    },
    {
      "inputs": [],
      "name": "enterRaffel",
      "outputs": [],
      "stateMutability": "payable",
      "type": "function"
    },
    {
      "inputs": [],
      "name": "i_callbackGasLimit",
      "outputs": [
        {
          "internalType": "uint32",
          "name": "",
          "type": "uint32"
        }
      ],
      "stateMutability": "view",
      "type": "function"
    },
    {
      "inputs": [],
      "name": "i_entranceFee",
      "outputs": [
        {
          "internalType": "uint256",
          "name": "",
          "type": "uint256"
        }
      ],
      "stateMutability": "view",
      "type": "function"
    },
    {
      "inputs": [],
      "name": "i_gasLane",
      "outputs": [
        {
          "internalType": "bytes32",
          "name": "",
          "type": "bytes32"
        }
      ],
      "stateMutability": "view",
      "type": "function"
    },
    {
      "inputs": [],
      "name": "i_interval",
      "outputs": [
        {
          "internalType": "uint256",
          "name": "",
          "type": "uint256"
        }
      ],
      "stateMutability": "view",
      "type": "function"
    },
    {
      "inputs": [],
      "name": "i_subscriptionId",
      "outputs": [
        {
          "internalType": "uint64",
          "name": "",
          "type": "uint64"
        }
      ],
      "stateMutability": "view",
      "type": "function"
    },
    {
      "inputs": [],
      "name": "i_vrfCoordinator",
      "outputs": [
        {
          "internalType": "contract VRFCoordinatorV2Interface",
          "name": "",
          "type": "address"
        }
      ],
      "stateMutability": "view",
      "type": "function"
    },
    {
      "inputs": [
        {
          "internalType": "bytes",
          "name": "",
          "type": "bytes"
        }
      ],
      "name": "performUpkeep",
      "outputs": [],
      "stateMutability": "nonpayable",
      "type": "function"
    },
    {
      "inputs": [
        {
          "internalType": "uint256",
          "name": "requestId",
          "type": "uint256"
        },
        {
          "internalType": "uint256[]",
          "name": "randomWords",
          "type": "uint256[]"
        }
      ],
      "name": "rawFulfillRandomWords",
      "outputs": [],
      "stateMutability": "nonpayable",
      "type": "function"
    },
    {
      "inputs": [],
      "name": "s_lastTimeStamp",
      "outputs": [
        {
          "internalType": "uint256",
          "name": "",
          "type": "uint256"
        }
      ],
      "stateMutability": "view",
      "type": "function"
    },
    {
      "inputs": [
        {
          "internalType": "uint256",
          "name": "",
          "type": "uint256"
        }
      ],
      "name": "s_players",
      "outputs": [
        {
          "internalType": "address payable",
          "name": "",
          "type": "address"
        }
      ],
      "stateMutability": "view",
      "type": "function"
    },
    {
      "inputs": [],
      "name": "s_raffleState",
      "outputs": [
        {
          "internalType": "enum Raffle.RaffleState",
          "name": "",
          "type": "uint8"
        }
      ],
      "stateMutability": "view",
      "type": "function"
    },
    {
      "inputs": [],
      "name": "s_recentWinner",
      "outputs": [
        {
          "internalType": "address",
          "name": "",
          "type": "address"
        }
      ],
      "stateMutability": "view",
      "type": "function"
    }
  ],
  "bytecode": "0x61016060405234801561001157600080fd5b50604051610e8d380380610e8d83398101604081905261003091610086565b60609390931b6001600160601b031916608081905260a09590955260c09384524260025560e09485526101009190915290911b6001600160c01b03191661012052901b6001600160e01b03191661014052610111565b60008060008060008060c0878903121561009f57600080fd5b86516020880151604089015191975095506001600160a01b03811681146100c557600080fd5b6060880151608089015191955093506001600160401b03811681146100e957600080fd5b60a088015190925063ffffffff8116811461010357600080fd5b809150509295509295509295565b60805160601c60a05160c05160e05160601c610100516101205160c01c6101405160e01c610ce56101a86000396000818161039901526105e101526000818161017d01526105aa0152600081816102ea015261058401526000818161033e015261061d0152600081816101f2015261070101526000818161027e01526103bd0152600081816104aa01526104ec0152610ce56000f3fe6080604052600436106100f35760003560e01c806372cf6e341161008a578063ae771f6b11610059578063ae771f6b1461030c578063aebc45501461032c578063cc45483f14610360578063d757d0271461038757600080fd5b806372cf6e34146102425780637ea3e6c11461026c5780638638b0c6146102a05780638e879c8a146102d857600080fd5b8063470cdf97116100c6578063470cdf971461016b57806367f082b0146101b85780636919207d146101e05780636e04ff0d1461021457600080fd5b80630ff19fd7146100f85780631fe543e31461010257806334854043146101225780634585e33b1461014b575b600080fd5b6101006103bb565b005b34801561010e57600080fd5b5061010061011d366004610ab5565b61049f565b34801561012e57600080fd5b5061013860025481565b6040519081526020015b60405180910390f35b34801561015757600080fd5b5061010061016636600461097c565b61052b565b34801561017757600080fd5b5061019f7f000000000000000000000000000000000000000000000000000000000000000081565b60405167ffffffffffffffff9091168152602001610142565b3480156101c457600080fd5b506101cd600381565b60405161ffff9091168152602001610142565b3480156101ec57600080fd5b506101387f000000000000000000000000000000000000000000000000000000000000000081565b34801561022057600080fd5b5061023461022f3660046109ee565b6106cd565b604051610142929190610b6e565b34801561024e57600080fd5b50610257600181565b60405163ffffffff9091168152602001610142565b34801561027857600080fd5b506101387f000000000000000000000000000000000000000000000000000000000000000081565b3480156102ac57600080fd5b506003546102c0906001600160a01b031681565b6040516001600160a01b039091168152602001610142565b3480156102e457600080fd5b506101387f000000000000000000000000000000000000000000000000000000000000000081565b34801561031857600080fd5b506102c0610327366004610a83565b610772565b34801561033857600080fd5b506102c07f000000000000000000000000000000000000000000000000000000000000000081565b34801561036c57600080fd5b5060005461037a9060ff1681565b6040516101429190610bcd565b34801561039357600080fd5b506102577f000000000000000000000000000000000000000000000000000000000000000081565b7f00000000000000000000000000000000000000000000000000000000000000003410156103fc5760405163181c600560e11b815260040160405180910390fd5b6000805460ff16600181111561041457610414610c6d565b146104325760405163349289c560e21b815260040160405180910390fd5b60018054808201825560009182527fb10e2d527612073b26eecdfd717e6a320cf44b4afac2b0732d9fcbe2b7fa0cf60180546001600160a01b0319163390811790915560405190917f0805e1d667bddb8a95f0f09880cf94f403fb596ce79928d9f29b74203ba284d491a2565b336001600160a01b037f0000000000000000000000000000000000000000000000000000000000000000161461051d5760405163073e64fd60e21b81523360048201526001600160a01b037f000000000000000000000000000000000000000000000000000000000000000016602482015260440160405180910390fd5b610527828261079c565b5050565b6000610545604051806020016040528060008152506106cd565b5090508061056657604051638e4bc81760e01b815260040160405180910390fd5b6000805460ff1916600190811782556040516305d3b1d360e41b81527f000000000000000000000000000000000000000000000000000000000000000060048201527f000000000000000000000000000000000000000000000000000000000000000067ffffffffffffffff166024820152600360448201527f000000000000000000000000000000000000000000000000000000000000000063ffffffff16606482015260848101919091526001600160a01b037f00000000000000000000000000000000000000000000000000000000000000001690635d3b1d309060a401602060405180830381600087803b15801561066157600080fd5b505af1158015610675573d6000803e3d6000fd5b505050506040513d601f19601f820116820180604052508101906106999190610a9c565b60405190915081907fcd6e45c8998311cab7e9d4385596cac867e20a0587194b954fa3a731c93ce78b90600090a250505050565b60008054606090829060ff1660018111156106ea576106ea610c6d565b6001546002549115925047151591901515906000907f00000000000000000000000000000000000000000000000000000000000000009061072b9042610c26565b1190508080156107385750835b80156107415750825b801561074a5750815b60408051808201909152600381526203078360ec1b6020820152909890975095505050505050565b6001818154811061078257600080fd5b6000918252602090912001546001600160a01b0316905081565b6000600180549050826000815181106107b7576107b7610c83565b60200260200101516107c99190610c4b565b90506000600182815481106107e0576107e0610c83565b6000918252602082200154600380546001600160a01b0319166001600160a01b0390921691821790559150604051908082528060200260200182016040528015610834578160200160208202803683370190505b50805161084991600191602090910190610902565b50426002556000805460ff191681556040516001600160a01b0383169047908381818185875af1925050503d80600081146108a0576040519150601f19603f3d011682016040523d82523d6000602084013e6108a5565b606091505b50509050806108c75760405163a1d04b3960e01b815260040160405180910390fd5b6040516001600160a01b038316907f5b690ec4a06fe979403046eaeea5b3ce38524683c3001f662c8b5a829632f7df90600090a25050505050565b828054828255906000526020600020908101928215610957579160200282015b8281111561095757825182546001600160a01b0319166001600160a01b03909116178255602090920191600190910190610922565b50610963929150610967565b5090565b5b808211156109635760008155600101610968565b6000806020838503121561098f57600080fd5b823567ffffffffffffffff808211156109a757600080fd5b818501915085601f8301126109bb57600080fd5b8135818111156109ca57600080fd5b8660208285010111156109dc57600080fd5b60209290920196919550909350505050565b60006020808385031215610a0157600080fd5b823567ffffffffffffffff80821115610a1957600080fd5b818501915085601f830112610a2d57600080fd5b813581811115610a3f57610a3f610c99565b610a51601f8201601f19168501610bf5565b91508082528684828501011115610a6757600080fd5b8084840185840137600090820190930192909252509392505050565b600060208284031215610a9557600080fd5b5035919050565b600060208284031215610aae57600080fd5b5051919050565b60008060408385031215610ac857600080fd5b8235915060208084013567ffffffffffffffff80821115610ae857600080fd5b818601915086601f830112610afc57600080fd5b813581811115610b0e57610b0e610c99565b8060051b9150610b1f848301610bf5565b8181528481019084860184860187018b1015610b3a57600080fd5b600095505b83861015610b5d578035835260019590950194918601918601610b3f565b508096505050505050509250929050565b821515815260006020604081840152835180604085015260005b81811015610ba457858101830151858201606001528201610b88565b81811115610bb6576000606083870101525b50601f01601f191692909201606001949350505050565b6020810160028310610bef57634e487b7160e01b600052602160045260246000fd5b91905290565b604051601f8201601f1916810167ffffffffffffffff81118282101715610c1e57610c1e610c99565b604052919050565b600082821015610c4657634e487b7160e01b600052601160045260246000fd5b500390565b600082610c6857634e487b7160e01b600052601260045260246000fd5b500690565b634e487b7160e01b600052602160045260246000fd5b634e487b7160e01b600052603260045260246000fd5b634e487b7160e01b600052604160045260246000fdfea2646970667358221220fe5bdb9921811b380d08fb04df1a5e601c21eb2f63c6d961d5104099548dfe3864736f6c63430008070033",
  "linkReferences": {},
  "deployedLinkReferences": {}
}